:100000000C942A000C9434000C9434000C943400AA
:100010000C9434000C9434000C9434000C94340090
:100020000C9434000C9434000C9434000C94340080
:100030000C9434000C9434000C9434000C94340070
:100040000C9434000C9434000C9434000C94340060
:100050000C94340011241FBECFE5D8E0DEBFCDBF25
:100060000E9436000C949F020C94000040E060E077
:1000700083E00E94AA0141E061E083E00E94AA01BE
:100080000E9490020E949B02863421F00E949B02F3
:10009000863619F40E947900F5CF0E949B028234C3
:1000A00021F00E949B02823619F40E943001EACFAF
:1000B0000E949B02823521F00E949B02823719F434
:1000C0000E94B600DFCF0E949B028C3421F00E9478
:1000D0009B028C3619F40E94F300D4CF0E949B023D
:1000E000833521F00E949B02833761F60E946D01E7
:1000F000C9CF41E064E083E00E94AA0141E065E0ED
:1001000083E00E94AA0141E060E082E00E94AA012F
:1001100041E061E082E00E94AA0141E062E082E009
:100120000E94AA0141E063E082E00E94AA0141E04E
:1001300064E083E00E941D0241E065E083E00E94EC
:100140001D0241E060E082E00E941D0240E061E0AB
:1001500082E00E941D0241E062E082E00E941D02F6
:1001600040E063E082E00E941D02089541E064E007
:1001700083E00E94AA0141E065E083E00E94AA01B9
:1001800041E060E082E00E94AA0141E061E082E09B
:100190000E94AA0141E062E082E00E94AA0141E0DF
:1001A00063E082E00E94AA0141E064E083E00E94F3
:1001B0001D0241E065E083E00E941D0241E060E035
:1001C00082E00E941D0240E061E082E00E941D0288
:1001D00040E062E082E00E941D0240E063E082E0D5
:1001E0000E941D02089541E064E083E00E94AA019C
:1001F00041E065E083E00E94AA0141E060E082E026
:100200000E94AA0141E061E082E00E94AA0141E06F
:1002100062E082E00E94AA0141E063E082E00E9485
:10022000AA0141E064E083E00E941D0241E065E034
:1002300083E00E941D0240E060E082E00E941D0217
:1002400040E061E082E00E941D0241E062E082E065
:100250000E941D0240E063E082E00E941D020895BA
:1002600041E064E083E00E94AA0141E065E083E0B0
:100270000E94AA0141E060E082E00E94AA0141E000
:1002800061E082E00E94AA0141E062E082E00E9417
:10029000AA0141E063E082E00E94AA0141E064E03B
:1002A00083E00E941D0241E065E083E00E941D02A0
:1002B00040E060E082E00E941D0241E061E082E0F7
:1002C0000E941D0240E062E082E00E941D0241E0C7
:1002D00063E082E00E941D02089541E064E083E053
:1002E0000E94AA0141E065E083E00E94AA0141E08A
:1002F00060E082E00E94AA0141E061E082E00E94A9
:10030000AA0141E062E082E00E94AA0141E063E0CC
:1003100082E00E94AA0140E064E083E00E941D02A6
:1003200040E065E083E00E941D0240E060E082E082
:100330000E941D0240E061E082E00E941D0240E058
:1003400062E082E00E941D0240E063E082E00E94E1
:100350001D020895423008F06FC04130A1F5813090
:1003600089F028F08230C9F0833011F108952AB362
:1003700081E090E002C0880F991F6A95E2F7822B16
:100380008ABB089527B381E090E002C0880F991FCF
:100390006A95E2F7822B87BB089524B381E090E051
:1003A00002C0880F991F6A95E2F7822B84BB0895DB
:1003B00021B381E090E002C0880F991F6A95E2F7AF
:1003C000822B81BB0895411137C0813091F028F014
:1003D0008230D9F0833029F108952AB381E090E08A
:1003E00002C0880F991F6A95E2F7809582238ABB25
:1003F000089527B381E090E002C0880F991F6A95A5
:10040000E2F78095822387BB089524B381E090E0D2
:1004100002C0880F991F6A95E2F78095822384BBFA
:10042000089521B381E090E002C0880F991F6A957A
:10043000E2F78095822381BB0895423008F06FC0B7
:100440004130A1F5813089F028F08230C9F0833045
:1004500011F108952BB381E090E002C0880F991F3D
:100460006A95E2F7822B8BBB089528B381E090E078
:1004700002C0880F991F6A95E2F7822B88BB089506
:1004800025B381E090E002C0880F991F6A95E2F7DA
:10049000822B85BB089522B381E090E002C0880FD3
:1004A000991F6A95E2F7822B82BB0895411137C0EC
:1004B000813091F028F08230D9F0833029F108950D
:1004C0002BB381E090E002C0880F991F6A95E2F794
:1004D000809582238BBB089528B381E090E002C011
:1004E000880F991F6A95E2F78095822388BB08954B
:1004F00025B381E090E002C0880F991F6A95E2F76A
:100500008095822385BB089522B381E090E002C0EC
:10051000880F991F6A95E2F78095822382BB089520
:1005200086E880BD87E689B98AB188608AB98AB1D0
:1005300080618AB908955F9BFECF8CB10895F894CD
:02054000FFCFEB
:00000001FF
